{
  "_format": "hh-sol-artifact-1",
  "contractName": "LoyaltyProgram",
  "sourceName": "contracts/LoyaltyProgram.sol",
  "abi": [
    {
      "inputs": [],
      "stateMutability": "nonpayable",
      "type": "constructor"
    },
    {
      "anonymous": false,
      "inputs": [
        {
          "indexed": true,
          "internalType": "address",
          "name": "user",
          "type": "address"
        },
        {
          "indexed": false,
          "internalType": "address",
          "name": "service",
          "type": "address"
        },
        {
          "indexed": false,
          "internalType": "uint256",
          "name": "amount",
          "type": "uint256"
        }
      ],
      "name": "PointsIssued",
      "type": "event"
    },
    {
      "anonymous": false,
      "inputs": [
        {
          "indexed": true,
          "internalType": "address",
          "name": "user",
          "type": "address"
        },
        {
          "indexed": false,
          "internalType": "uint256",
          "name": "amount",
          "type": "uint256"
        }
      ],
      "name": "PointsRedeemed",
      "type": "event"
    },
    {
      "anonymous": false,
      "inputs": [
        {
          "indexed": true,
          "internalType": "address",
          "name": "from",
          "type": "address"
        },
        {
          "indexed": false,
          "internalType": "address",
          "name": "to",
          "type": "address"
        },
        {
          "indexed": false,
          "internalType": "uint256",
          "name": "amount",
          "type": "uint256"
        }
      ],
      "name": "PointsTransferred",
      "type": "event"
    },
    {
      "inputs": [
        {
          "internalType": "address",
          "name": "user",
          "type": "address"
        },
        {
          "internalType": "uint256",
          "name": "points",
          "type": "uint256"
        },
        {
          "internalType": "address",
          "name": "serviceProvider",
          "type": "address"
        }
      ],
      "name": "issuePoints",
      "outputs": [],
      "stateMutability": "nonpayable",
      "type": "function"
    },
    {
      "inputs": [],
      "name": "owner",
      "outputs": [
        {
          "internalType": "address",
          "name": "",
          "type": "address"
        }
      ],
      "stateMutability": "view",
      "type": "function"
    },
    {
      "inputs": [
        {
          "internalType": "uint256",
          "name": "points",
          "type": "uint256"
        }
      ],
      "name": "redeemPoints",
      "outputs": [],
      "stateMutability": "nonpayable",
      "type": "function"
    },
    {
      "inputs": [
        {
          "internalType": "address",
          "name": "to",
          "type": "address"
        },
        {
          "internalType": "uint256",
          "name": "points",
          "type": "uint256"
        }
      ],
      "name": "transferPoints",
      "outputs": [],
      "stateMutability": "nonpayable",
      "type": "function"
    },
    {
      "inputs": [
        {
          "internalType": "address",
          "name": "",
          "type": "address"
        }
      ],
      "name": "users",
      "outputs": [
        {
          "internalType": "uint256",
          "name": "points",
          "type": "uint256"
        }
      ],
      "stateMutability": "view",
      "type": "function"
    },
    {
      "inputs": [
        {
          "internalType": "address",
          "name": "user",
          "type": "address"
        }
      ],
      "name": "viewPoints",
      "outputs": [
        {
          "internalType": "uint256",
          "name": "",
          "type": "uint256"
        }
      ],
      "stateMutability": "view",
      "type": "function"
    }
  ],
  "bytecode": "0x608060405234801561001057600080fd5b5033600160006101000a81548173ffffffffffffffffffffffffffffffffffffffff021916908373ffffffffffffffffffffffffffffffffffffffff160217905550610a4b806100616000396000f3fe608060405234801561001057600080fd5b50600436106100625760003560e01c8063326f823f146100675780636a6e1be7146100835780638da5cb5b1461009f578063a87430ba146100bd578063e92e92e7146100ed578063ec0f36be14610109575b600080fd5b610081600480360381019061007c91906106d8565b610139565b005b61009d60048036038101906100989190610714565b6102c1565b005b6100a76104c9565b6040516100b491906107f0565b60405180910390f35b6100d760048036038101906100d291906106af565b6104ef565b6040516100e49190610874565b60405180910390f35b61010760048036038101906101029190610763565b61050d565b005b610123600480360381019061011e91906106af565b61063a565b6040516101309190610874565b60405180910390f35b806000803373ffffffffffffffffffffffffffffffffffffffff1673ffffffffffffffffffffffffffffffffffffffff1681526020019081526020016000206000015410156101bd576040517f08c379a00000000000000000000000000000000000000000000000000000000081526004016101b490610854565b60405180910390fd5b806000803373ffffffffffffffffffffffffffffffffffffffff1673ffffffffffffffffffffffffffffffffffffffff168152602001908152602001600020600001600082825461020e91906108f6565b92505081905550806000808473ffffffffffffffffffffffffffffffffffffffff1673ffffffffffffffffffffffffffffffffffffffff168152602001908152602001600020600001600082825461026691906108a0565b925050819055503373ffffffffffffffffffffffffffffffffffffffff167f8368079d4813055221156198c714ea6a6742cfcec7c979383b0085e1cc738dc083836040516102b592919061080b565b60405180910390a25050565b600160009054906101000a900473ffffffffffffffffffffffffffffffffffffffff1673ffffffffffffffffffffffffffffffffffffffff163373ffffffffffffffffffffffffffffffffffffffff16148061034857508073ffffffffffffffffffffffffffffffffffffffff163373ffffffffffffffffffffffffffffffffffffffff16145b610387576040517f08c379a000000000000000000000000000000000000000000000000000000000815260040161037e90610834565b60405180910390fd5b816000808573ffffffffffffffffffffffffffffffffffffffff1673ffffffffffffffffffffffffffffffffffffffff16815260200190815260200160002060000160008282546103d891906108a0565b92505081905550816000808573ffffffffffffffffffffffffffffffffffffffff1673ffffffffffffffffffffffffffffffffffffffff16815260200190815260200160002060010160008373ffffffffffffffffffffffffffffffffffffffff1673ffffffffffffffffffffffffffffffffffffffff168152602001908152602001600020600082825461046d91906108a0565b925050819055508273ffffffffffffffffffffffffffffffffffffffff167fb344447e013653cce24162ad02204fedcfb02c5a4ce89bcb88253b5b5df0af5782846040516104bc92919061080b565b60405180910390a2505050565b600160009054906101000a900473ffffffffffffffffffffffffffffffffffffffff1681565b60006020528060005260406000206000915090508060000154905081565b806000803373ffffffffffffffffffffffffffffffffffffffff1673ffffffffffffffffffffffffffffffffffffffff168152602001908152602001600020600001541015610591576040517f08c379a000000000000000000000000000000000000000000000000000000000815260040161058890610854565b60405180910390fd5b806000803373ffffffffffffffffffffffffffffffffffffffff1673ffffffffffffffffffffffffffffffffffffffff16815260200190815260200160002060000160008282546105e291906108f6565b925050819055503373ffffffffffffffffffffffffffffffffffffffff167fc37df5d14f305277c1289e9a188a097cda6684189c95f785feb056cb77a8c9108260405161062f9190610874565b60405180910390a250565b60008060008373ffffffffffffffffffffffffffffffffffffffff1673ffffffffffffffffffffffffffffffffffffffff168152602001908152602001600020600001549050919050565b600081359050610694816109e7565b92915050565b6000813590506106a9816109fe565b92915050565b6000602082840312156106c157600080fd5b60006106cf84828501610685565b91505092915050565b600080604083850312156106eb57600080fd5b60006106f985828601610685565b925050602061070a8582860161069a565b9150509250929050565b60008060006060848603121561072957600080fd5b600061073786828701610685565b93505060206107488682870161069a565b925050604061075986828701610685565b9150509250925092565b60006020828403121561077557600080fd5b60006107838482850161069a565b91505092915050565b6107958161092a565b82525050565b60006107a8600c8361088f565b91506107b382610995565b602082019050919050565b60006107cb60138361088f565b91506107d6826109be565b602082019050919050565b6107ea8161095c565b82525050565b6000602082019050610805600083018461078c565b92915050565b6000604082019050610820600083018561078c565b61082d60208301846107e1565b9392505050565b6000602082019050818103600083015261084d8161079b565b9050919050565b6000602082019050818103600083015261086d816107be565b9050919050565b600060208201905061088960008301846107e1565b92915050565b600082825260208201905092915050565b60006108ab8261095c565b91506108b68361095c565b9250827fffffffffffffffffffffffffffffffffffffffffffffffffffffffffffffffff038211156108eb576108ea610966565b5b828201905092915050565b60006109018261095c565b915061090c8361095c565b92508282101561091f5761091e610966565b5b828203905092915050565b60006109358261093c565b9050919050565b600073ffffffffffffffffffffffffffffffffffffffff82169050919050565b6000819050919050565b7f4e487b7100000000000000000000000000000000000000000000000000000000600052601160045260246000fd5b7f556e617574686f72697a65640000000000000000000000000000000000000000600082015250565b7f496e73756666696369656e7420706f696e747300000000000000000000000000600082015250565b6109f08161092a565b81146109fb57600080fd5b50565b610a078161095c565b8114610a1257600080fd5b5056fea2646970667358221220445099e94f2cfb7a74be09d9c779716428f5a3fad75f1173c6a57f059196e16564736f6c63430008040033",
  "linkReferences": {},
  "deployedLinkReferences": {}
}